{
  "contractName": "HashRepo",
  "abi": [
    {
      "constant": true,
      "inputs": [
        {
          "name": "",
          "type": "uint256"
        }
      ],
      "name": "repoInfo",
      "outputs": [
        {
          "name": "repoMaster",
          "type": "address"
        },
        {
          "name": "name",
          "type": "string"
        },
        {
          "name": "commitCount",
          "type": "uint256"
        },
        {
          "name": "isPrivate",
          "type": "bool"
        }
      ],
      "payable": false,
      "stateMutability": "view",
      "type": "function"
    },
    {
      "constant": true,
      "inputs": [],
      "name": "repoID",
      "outputs": [
        {
          "name": "",
          "type": "uint256"
        }
      ],
      "payable": false,
      "stateMutability": "view",
      "type": "function"
    },
    {
      "inputs": [],
      "payable": false,
      "stateMutability": "nonpayable",
      "type": "constructor"
    },
    {
      "constant": false,
      "inputs": [
        {
          "name": "_name",
          "type": "string"
        },
        {
          "name": "_private",
          "type": "bool"
        }
      ],
      "name": "newHashRepo",
      "outputs": [],
      "payable": false,
      "stateMutability": "nonpayable",
      "type": "function"
    },
    {
      "constant": false,
      "inputs": [
        {
          "name": "_repoID",
          "type": "uint256"
        },
        {
          "name": "_commitHash",
          "type": "string"
        },
        {
          "name": "_commitMessage",
          "type": "string"
        }
      ],
      "name": "sendCommit",
      "outputs": [],
      "payable": false,
      "stateMutability": "nonpayable",
      "type": "function"
    },
    {
      "constant": false,
      "inputs": [
        {
          "name": "_repoID",
          "type": "uint256"
        },
        {
          "name": "_add",
          "type": "address"
        }
      ],
      "name": "AddToWhiteList",
      "outputs": [],
      "payable": false,
      "stateMutability": "nonpayable",
      "type": "function"
    },
    {
      "constant": false,
      "inputs": [
        {
          "name": "_repoID",
          "type": "uint256"
        },
        {
          "name": "_remove",
          "type": "address"
        }
      ],
      "name": "RemoveFromWhiteList",
      "outputs": [],
      "payable": false,
      "stateMutability": "nonpayable",
      "type": "function"
    }
  ],
  "bytecode": "0x608060405234801561001057600080fd5b5060008081905550610bc7806100276000396000f300608060405260043610610078576000357c0100000000000000000000000000000000000000000000000000000000900463ffffffff16806337deace41461007d5780634910c6ae14610168578063b5c3d28e14610221578063bf60bae11461026e578063dfeca6da14610299578063f1d188af146102e6575b600080fd5b34801561008957600080fd5b506100a86004803603810190808035906020019092919050505061035b565b604051808573ffffffffffffffffffffffffffffffffffffffff1673ffffffffffffffffffffffffffffffffffffffff1681526020018060200184815260200183151515158152602001828103825285818151815260200191508051906020019080838360005b8381101561012a57808201518184015260208101905061010f565b50505050905090810190601f1680156101575780820380516001836020036101000a031916815260200191505b509550505050505060405180910390f35b34801561017457600080fd5b5061021f60048036038101908080359060200190929190803590602001908201803590602001908080601f0160208091040260200160405190810160405280939291908181526020018383808284378201915050505050509192919290803590602001908201803590602001908080601f0160208091040260200160405190810160405280939291908181526020018383808284378201915050505050509192919290505050610450565b005b34801561022d57600080fd5b5061026c60048036038101908080359060200190929190803573ffffffffffffffffffffffffffffffffffffffff16906020019092919050505061070f565b005b34801561027a57600080fd5b50610283610858565b6040518082815260200191505060405180910390f35b3480156102a557600080fd5b506102e460048036038101908080359060200190929190803573ffffffffffffffffffffffffffffffffffffffff16906020019092919050505061085e565b005b3480156102f257600080fd5b50610359600480360381019080803590602001908201803590602001908080601f01602080910402602001604051908101604052809392919081815260200183838082843782019150505050505091929192908035151590602001909291905050506109a8565b005b60016020528060005260406000206000915090508060000160009054906101000a900473ffffffffffffffffffffffffffffffffffffffff1690806001018054600181600116156101000203166002900480601f01602080910402602001604051908101604052809291908181526020018280546001816001161561010002031660029004801561042d5780601f106104025761010080835404028352916020019161042d565b820191906000526020600020905b81548152906001019060200180831161041057829003601f168201915b5050505050908060020154908060030160009054906101000a900460ff16905084565b600160008054815260200190815260200160002060030160009054906101000a900460ff1615806104de57506001600084815260200190815260200160002060040160003373ffffffffffffffffffffffffffffffffffffffff1673ffffffffffffffffffffffffffffffffffffffff16815260200190815260200160002060009054906101000a900460ff165b1515610578576040517f08c379a000000000000000000000000000000000000000000000000000000000815260040180806020018281038252602e8152602001807f596f7520617265206e6f7420617574686f72697a656420746f20636f6d6d697481526020017f20746f2074686973207265706f2e00000000000000000000000000000000000081525060400191505060405180910390fd5b336001600085815260200190815260200160002060050160006001600087815260200190815260200160002060020154815260200190815260200160002060000160006101000a81548173ffffffffffffffffffffffffffffffffffffffff021916908373ffffffffffffffffffffffffffffffffffffffff1602179055508160016000858152602001908152602001600020600501600060016000878152602001908152602001600020600201548152602001908152602001600020600101908051906020019061064b929190610af6565b50806001600085815260200190815260200160002060050160006001600087815260200190815260200160002060020154815260200190815260200160002060020190805190602001906106a0929190610af6565b50436001600085815260200190815260200160002060050160006001600087815260200190815260200160002060020154815260200190815260200160002060030181905550600180600085815260200190815260200160002060020160008282540192505081905550505050565b3373ffffffffffffffffffffffffffffffffffffffff166001600084815260200190815260200160002060000160009054906101000a900473ffffffffffffffffffffffffffffffffffffffff1673ffffffffffffffffffffffffffffffffffffffff161415156107e8576040517f08c379a000000000000000000000000000000000000000000000000000000000815260040180806020018281038252601c8152602001807f596f7520617265206e6f7420746865207265706f206d61737465722e0000000081525060200191505060405180910390fd5b60018060008054815260200190815260200160002060040160008373ffffffffffffffffffffffffffffffffffffffff1673ffffffffffffffffffffffffffffffffffffffff16815260200190815260200160002060006101000a81548160ff0219169083151502179055505050565b60005481565b3373ffffffffffffffffffffffffffffffffffffffff166001600084815260200190815260200160002060000160009054906101000a900473ffffffffffffffffffffffffffffffffffffffff1673ffffffffffffffffffffffffffffffffffffffff16141515610937576040517f08c379a000000000000000000000000000000000000000000000000000000000815260040180806020018281038252601c8152602001807f596f7520617265206e6f7420746865207265706f206d61737465722e0000000081525060200191505060405180910390fd5b6000600160008054815260200190815260200160002060040160008373ffffffffffffffffffffffffffffffffffffffff1673ffffffffffffffffffffffffffffffffffffffff16815260200190815260200160002060006101000a81548160ff0219169083151502179055505050565b33600160008054815260200190815260200160002060000160006101000a81548173ffffffffffffffffffffffffffffffffffffffff021916908373ffffffffffffffffffffffffffffffffffffffff1602179055508160016000805481526020019081526020016000206001019080519060200190610a29929190610af6565b5060018060008054815260200190815260200160002060040160003373ffffffffffffffffffffffffffffffffffffffff1673ffffffffffffffffffffffffffffffffffffffff16815260200190815260200160002060006101000a81548160ff021916908315150217905550600060016000805481526020019081526020016000206002018190555080600160008054815260200190815260200160002060030160006101000a81548160ff021916908315150217905550600160008082825401925050819055505050565b828054600181600116156101000203166002900490600052602060002090601f016020900481019282601f10610b3757805160ff1916838001178555610b65565b82800160010185558215610b65579182015b82811115610b64578251825591602001919060010190610b49565b5b509050610b729190610b76565b5090565b610b9891905b80821115610b94576000816000905550600101610b7c565b5090565b905600a165627a7a7230582083f1afa847e9dc894af040d2ac4a9412708ed438ea028e2a1deffb20397e2ab40029",
  "source": "pragma solidity ^0.4.24;\n\ncontract HashRepo {\n\n    uint public repoID;\n\n    struct Commit {\n        address commiter;\n        string commitHash;\n        string commitMessage;\n        uint commitBlock;\n    }\n    \n    struct Repo {\n        address repoMaster;\n        string name;\n        uint commitCount;\n        bool isPrivate;\n        mapping(address => bool) whiteList;\n        mapping(uint => Commit) commitLog;\n    }\n\n    mapping(uint => Repo) public repoInfo;\n\n    constructor() public {\n        repoID = 0;\n    }\n\n    function newHashRepo (string _name, bool _private) public {\n        repoInfo[repoID].repoMaster = msg.sender;\n        repoInfo[repoID].name = _name;\n        repoInfo[repoID].whiteList[msg.sender] = true;\n        repoInfo[repoID].commitCount = 0;\n        repoInfo[repoID].isPrivate = _private;\n        repoID += 1;\n    }\n\n    function sendCommit (uint _repoID, string _commitHash, string _commitMessage) public {\n        require(!repoInfo[repoID].isPrivate || repoInfo[_repoID].whiteList[msg.sender], \"You are not authorized to commit to this repo.\");\n        repoInfo[_repoID].commitLog[repoInfo[_repoID].commitCount].commiter = msg.sender;\n        repoInfo[_repoID].commitLog[repoInfo[_repoID].commitCount].commitHash = _commitHash;\n        repoInfo[_repoID].commitLog[repoInfo[_repoID].commitCount].commitMessage = _commitMessage;\n        repoInfo[_repoID].commitLog[repoInfo[_repoID].commitCount].commitBlock = block.number;\n        repoInfo[_repoID].commitCount += 1;\n\n    }\n\n    function AddToWhiteList (uint _repoID, address _add) public {\n        require(repoInfo[_repoID].repoMaster == msg.sender, \"You are not the repo master.\");\n        repoInfo[repoID].whiteList[_add] = true;\n    }\n\n    function RemoveFromWhiteList (uint _repoID, address _remove) public {\n        require(repoInfo[_repoID].repoMaster == msg.sender, \"You are not the repo master.\");\n        repoInfo[repoID].whiteList[_remove] = false;\n    }\n\n}",
  "sourcePath": "/home/adam/Stackathon/HashRepo/contracts/HashRepo.sol",
  "compiler": {
    "name": "solc",
    "version": "0.4.24+commit.e67f0147.Emscripten.clang"
  },
  "schemaVersion": "2.0.1",
  "updatedAt": "2018-11-24T20:43:12.423Z"
}