{
  "contractName": "HashRepo",
  "abi": [
    {
      "constant": true,
      "inputs": [
        {
          "name": "",
          "type": "uint256"
        }
      ],
      "name": "repoInfo",
      "outputs": [
        {
          "name": "repoMaster",
          "type": "address"
        },
        {
          "name": "commitCount",
          "type": "uint256"
        },
        {
          "name": "isPrivate",
          "type": "bool"
        }
      ],
      "payable": false,
      "stateMutability": "view",
      "type": "function"
    },
    {
      "constant": true,
      "inputs": [],
      "name": "repoID",
      "outputs": [
        {
          "name": "",
          "type": "uint256"
        }
      ],
      "payable": false,
      "stateMutability": "view",
      "type": "function"
    },
    {
      "inputs": [],
      "payable": false,
      "stateMutability": "nonpayable",
      "type": "constructor"
    },
    {
      "constant": false,
      "inputs": [
        {
          "name": "_private",
          "type": "bool"
        }
      ],
      "name": "newHashRepo",
      "outputs": [],
      "payable": false,
      "stateMutability": "nonpayable",
      "type": "function"
    },
    {
      "constant": false,
      "inputs": [
        {
          "name": "_repoID",
          "type": "uint256"
        },
        {
          "name": "_msg",
          "type": "string"
        }
      ],
      "name": "sendHash",
      "outputs": [],
      "payable": false,
      "stateMutability": "nonpayable",
      "type": "function"
    },
    {
      "constant": false,
      "inputs": [
        {
          "name": "_repoID",
          "type": "uint256"
        },
        {
          "name": "_add",
          "type": "address"
        }
      ],
      "name": "AddToWhiteList",
      "outputs": [],
      "payable": false,
      "stateMutability": "nonpayable",
      "type": "function"
    },
    {
      "constant": false,
      "inputs": [
        {
          "name": "_repoID",
          "type": "uint256"
        },
        {
          "name": "_remove",
          "type": "address"
        }
      ],
      "name": "RemoveFromWhiteList",
      "outputs": [],
      "payable": false,
      "stateMutability": "nonpayable",
      "type": "function"
    }
  ],
  "bytecode": "0x608060405234801561001057600080fd5b5060008081905550610854806100276000396000f300608060405260043610610078576000357c0100000000000000000000000000000000000000000000000000000000900463ffffffff16806337deace41461007d578063741c6222146100fc578063b5c3d28e1461012b578063bd79497514610178578063bf60bae1146101eb578063dfeca6da14610216575b600080fd5b34801561008957600080fd5b506100a860048036038101908080359060200190929190505050610263565b604051808473ffffffffffffffffffffffffffffffffffffffff1673ffffffffffffffffffffffffffffffffffffffff16815260200183815260200182151515158152602001935050505060405180910390f35b34801561010857600080fd5b506101296004803603810190808035151590602001909291905050506102ba565b005b34801561013757600080fd5b5061017660048036038101908080359060200190929190803573ffffffffffffffffffffffffffffffffffffffff1690602001909291905050506103db565b005b34801561018457600080fd5b506101e960048036038101908080359060200190929190803590602001908201803590602001908080601f01602080910402602001604051908101604052809392919081815260200183838082843782019150505050505091929192905050506104bb565b005b3480156101f757600080fd5b5061020061069c565b6040518082815260200191505060405180910390f35b34801561022257600080fd5b5061026160048036038101908080359060200190929190803573ffffffffffffffffffffffffffffffffffffffff1690602001909291905050506106a2565b005b60016020528060005260406000206000915090508060000160009054906101000a900473ffffffffffffffffffffffffffffffffffffffff16908060010154908060020160009054906101000a900460ff16905083565b33600160008054815260200190815260200160002060000160006101000a81548173ffffffffffffffffffffffffffffffffffffffff021916908373ffffffffffffffffffffffffffffffffffffffff16021790555060018060008054815260200190815260200160002060030160003373ffffffffffffffffffffffffffffffffffffffff1673ffffffffffffffffffffffffffffffffffffffff16815260200190815260200160002060006101000a81548160ff021916908315150217905550600060016000805481526020019081526020016000206001018190555080600160008054815260200190815260200160002060020160006101000a81548160ff0219169083151502179055506001600080828254019250508190555050565b3373ffffffffffffffffffffffffffffffffffffffff166001600084815260200190815260200160002060000160009054906101000a900473ffffffffffffffffffffffffffffffffffffffff1673ffffffffffffffffffffffffffffffffffffffff1614151561044b57600080fd5b60018060008054815260200190815260200160002060030160008373ffffffffffffffffffffffffffffffffffffffff1673ffffffffffffffffffffffffffffffffffffffff16815260200190815260200160002060006101000a81548160ff0219169083151502179055505050565b60001515600160008054815260200190815260200160002060020160009054906101000a900460ff16151514158061055057506001600083815260200190815260200160002060030160003373ffffffffffffffffffffffffffffffffffffffff1673ffffffffffffffffffffffffffffffffffffffff16815260200190815260200160002060009054906101000a900460ff165b151561055b57600080fd5b336001600084815260200190815260200160002060040160006001600086815260200190815260200160002060010154815260200190815260200160002060000160006101000a81548173ffffffffffffffffffffffffffffffffffffffff021916908373ffffffffffffffffffffffffffffffffffffffff1602179055508060016000848152602001908152602001600020600401600060016000868152602001908152602001600020600101548152602001908152602001600020600101908051906020019061062e929190610783565b504360016000848152602001908152602001600020600401600060016000868152602001908152602001600020600101548152602001908152602001600020600201819055506001806000848152602001908152602001600020600101600082825401925050819055505050565b60005481565b3373ffffffffffffffffffffffffffffffffffffffff166001600084815260200190815260200160002060000160009054906101000a900473ffffffffffffffffffffffffffffffffffffffff1673ffffffffffffffffffffffffffffffffffffffff1614151561071257600080fd5b6000600160008054815260200190815260200160002060030160008373ffffffffffffffffffffffffffffffffffffffff1673ffffffffffffffffffffffffffffffffffffffff16815260200190815260200160002060006101000a81548160ff0219169083151502179055505050565b828054600181600116156101000203166002900490600052602060002090601f016020900481019282601f106107c457805160ff19168380011785556107f2565b828001600101855582156107f2579182015b828111156107f15782518255916020019190600101906107d6565b5b5090506107ff9190610803565b5090565b61082591905b80821115610821576000816000905550600101610809565b5090565b905600a165627a7a72305820d4dfb6a4bbf5c8e8ba1fd1dcbc5ff3adbf00372aa6a5ec9e3a03c0f05a44dd620029",
  "source": "pragma solidity ^0.4.24;\n\ncontract HashRepo {\n\n    uint public repoID;\n\n    struct Commit {\n        address commiter;\n        string hashMessage;\n        uint commitBlock;\n    }\n    \n    struct Repo {\n        address repoMaster;\n        uint commitCount;\n        bool isPrivate;\n        mapping(address => bool) whiteList;\n        mapping(uint => Commit) commitLog;\n    }\n\n    mapping(uint => Repo) public repoInfo;\n\n    constructor() public {\n        repoID = 0;\n    }\n\n    function newHashRepo (bool _private) public {\n        repoInfo[repoID].repoMaster = msg.sender;\n        repoInfo[repoID].whiteList[msg.sender] = true;\n        repoInfo[repoID].commitCount = 0;\n        repoInfo[repoID].isPrivate = _private;\n        repoID += 1;\n    }\n\n    function sendHash (uint _repoID, string _msg) public {\n        require((repoInfo[repoID].isPrivate != false) || repoInfo[_repoID].whiteList[msg.sender]);\n        repoInfo[_repoID].commitLog[repoInfo[_repoID].commitCount].commiter = msg.sender;\n        repoInfo[_repoID].commitLog[repoInfo[_repoID].commitCount].hashMessage = _msg;\n        repoInfo[_repoID].commitLog[repoInfo[_repoID].commitCount].commitBlock = block.number;\n        repoInfo[_repoID].commitCount += 1;\n\n    }\n\n    function AddToWhiteList (uint _repoID, address _add) public {\n        require(repoInfo[_repoID].repoMaster == msg.sender);\n        repoInfo[repoID].whiteList[_add] = true;\n    }\n\n    function RemoveFromWhiteList (uint _repoID, address _remove) public {\n        require(repoInfo[_repoID].repoMaster == msg.sender);\n        repoInfo[repoID].whiteList[_remove] = false;\n    }\n\n}",
  "sourcePath": "/home/adam/Stackathon/HashRepo/contracts/HashRepo.sol",
  "compiler": {
    "name": "solc",
    "version": "0.4.24+commit.e67f0147.Emscripten.clang"
  },
  "schemaVersion": "2.0.1",
  "updatedAt": "2018-11-24T20:35:49.559Z"
}