{
  "contractName": "HelloWorld",
  "abi": [
    {
      "constant": true,
      "inputs": [],
      "name": "messageCount",
      "outputs": [
        {
          "name": "",
          "type": "uint256"
        }
      ],
      "payable": false,
      "stateMutability": "view",
      "type": "function"
    },
    {
      "constant": true,
      "inputs": [
        {
          "name": "",
          "type": "uint256"
        }
      ],
      "name": "messageInfo",
      "outputs": [
        {
          "name": "",
          "type": "string"
        }
      ],
      "payable": false,
      "stateMutability": "view",
      "type": "function"
    },
    {
      "constant": true,
      "inputs": [],
      "name": "message",
      "outputs": [
        {
          "name": "",
          "type": "string"
        }
      ],
      "payable": false,
      "stateMutability": "view",
      "type": "function"
    },
    {
      "inputs": [
        {
          "name": "_message",
          "type": "string"
        }
      ],
      "payable": false,
      "stateMutability": "nonpayable",
      "type": "constructor"
    },
    {
      "constant": false,
      "inputs": [
        {
          "name": "_message",
          "type": "string"
        },
        {
          "name": "_count",
          "type": "uint256"
        }
      ],
      "name": "setMessage",
      "outputs": [],
      "payable": false,
      "stateMutability": "nonpayable",
      "type": "function"
    }
  ],
  "bytecode": "0x608060405260006001556040805190810160405280600c81526020017f74657374206d657373676165000000000000000000000000000000000000000081525060029080519060200190610054929190610109565b5034801561006157600080fd5b5060405161073f38038061073f83398101806040528101908080518201929190505050806002908051906020019061009a929190610109565b50336000806101000a81548173ffffffffffffffffffffffffffffffffffffffff021916908373ffffffffffffffffffffffffffffffffffffffff16021790555080600360008081526020019081526020016000209080519060200190610102929190610109565b50506101ae565b828054600181600116156101000203166002900490600052602060002090601f016020900481019282601f1061014a57805160ff1916838001178555610178565b82800160010185558215610178579182015b8281111561017757825182559160200191906001019061015c565b5b5090506101859190610189565b5090565b6101ab91905b808211156101a757600081600090555060010161018f565b5090565b90565b610582806101bd6000396000f300608060405260043610610062576000357c0100000000000000000000000000000000000000000000000000000000900463ffffffff1680633dbcc8d114610067578063c6baff5514610092578063dd9568b014610105578063e21f37ce146101ab575b600080fd5b34801561007357600080fd5b5061007c61023b565b6040518082815260200191505060405180910390f35b34801561009e57600080fd5b50610103600480360381019080803590602001908201803590602001908080601f016020809104026020016040519081016040528093929190818152602001838380828437820191505050505050919291929080359060200190929190505050610241565b005b34801561011157600080fd5b5061013060048036038101908080359060200190929190505050610363565b6040518080602001828103825283818151815260200191508051906020019080838360005b83811015610170578082015181840152602081019050610155565b50505050905090810190601f16801561019d5780820380516001836020036101000a031916815260200191505b509250505060405180910390f35b3480156101b757600080fd5b506101c0610413565b6040518080602001828103825283818151815260200191508051906020019080838360005b838110156102005780820151818401526020810190506101e5565b50505050905090810190601f16801561022d5780820380516001836020036101000a031916815260200191505b509250505060405180910390f35b60015481565b6000809054906101000a900473ffffffffffffffffffffffffffffffffffffffff1673ffffffffffffffffffffffffffffffffffffffff163373ffffffffffffffffffffffffffffffffffffffff16141515610305576040517f08c379a00000000000000000000000000000000000000000000000000000000081526004018080602001828103825260158152602001807f596f7520617265206e6f7420746865206f776e6572000000000000000000000081525060200191505060405180910390fd5b816002908051906020019061031b9291906104b1565b508081036001819055506001806000828254019250508190555081600360006001548152602001908152602001600020908051906020019061035e9291906104b1565b505050565b60036020528060005260406000206000915090508054600181600116156101000203166002900480601f01602080910402602001604051908101604052809291908181526020018280546001816001161561010002031660029004801561040b5780601f106103e05761010080835404028352916020019161040b565b820191906000526020600020905b8154815290600101906020018083116103ee57829003601f168201915b505050505081565b60028054600181600116156101000203166002900480601f0160208091040260200160405190810160405280929190818152602001828054600181600116156101000203166002900480156104a95780601f1061047e576101008083540402835291602001916104a9565b820191906000526020600020905b81548152906001019060200180831161048c57829003601f168201915b505050505081565b828054600181600116156101000203166002900490600052602060002090601f016020900481019282601f106104f257805160ff1916838001178555610520565b82800160010185558215610520579182015b8281111561051f578251825591602001919060010190610504565b5b50905061052d9190610531565b5090565b61055391905b8082111561054f576000816000905550600101610537565b5090565b905600a165627a7a723058207e45bdcab2aae701ce7afd9e6aff2d1f18e6ae44cee03072f16719c5ea49765a0029",
  "source": "pragma solidity ^0.4.24;\n\ncontract HelloWorld {\n\n    address owner;\n    uint public messageCount = 0;\n    string public message = \"test messgae\";\n    mapping(uint => string) public messageInfo;\n\n\n    constructor (string _message) public {\n        message = _message;\n        owner = msg.sender;\n        messageInfo[0] = _message;\n    }\n\n\n    function setMessage (string _message, uint _count) public {\n        require(msg.sender == owner, \"You are not the owner\");\n        message = _message;\n        messageCount = (_count - _count);\n        messageCount += 1;\n        messageInfo[messageCount] = _message;\n    }\n\n\n\n}",
  "sourcePath": "/home/adam/truffle-test/contracts/Helloworld.sol",
  "compiler": {
    "name": "solc",
    "version": "0.4.24+commit.e67f0147.Emscripten.clang"
  },
  "schemaVersion": "2.0.1",
  "updatedAt": "2018-11-20T02:06:02.285Z"
}